:0300000002088F64
:0C088F00787FE4F6D8FD7581230208D6BE
:10098B004143544956452020202020202020004B55
:10099B004559343A2B312020202020202000544967
:1009AB004D454F5554203E20355320200050575273
:1009BB00205341564520202020202000C0F9A4B010
:0609CB00999282F8809071
:100A7A00041800000000C182011D00011C00040EC0
:100A8A00000000000612FFFFFFFFFFFF010800C180
:0C0A9A0080C181010900040A0000000076
:090AD1007F01120BAC7F057E00D1
:100ADA00E4FDFCC3ED9FEC9E5015E4FBFA0BBB0052
:0F0AEA00010AEB64784A70F50DBD00010C80E441
:010AF90022DA
:100AFA00AF1BAE1AAD19AC188F118E108D0F8C0E5C
:020B0A00AF1C1E
:100B0C00EF9009C793F5127513FF7514FF7515FF58
:070B1C007516FF7517FF229B
:100BD6007512FF7513FF7514FF7515FF7516FF75F2
:030BE60017FF22D4
:10091B00200203D29422C294D293E508700DC292A6
:10092B00C291C29085128075080122E508B4010DB1
:10093B00C292C291D29085138075080222E508B449
:10094B00020DC292D291C29085148075080322E5E4
:10095B0008B4030DC292D291D2908515807508040C
:10096B0022E508B4040DD292C291C290851680750F
:0F097B00080522D292C291D290851780E4F50828
:01098A00224A
:050C4C00C202D2942257
:030C5100D20222AA
:100B6900120C4C7580FFC290D291D295AF80C2957C
:070B7900EF20E7F6020C512A
:100BAC00AE07120B69120C4CC290C2918E80D2957A
:050BBC00C295020C517E
:100BC100AE07120B69120C4CD290C2918E80D29555
:050BD100C295020C5169
:100C0F00ED7004AC078004EF2440FCEC4480FF023D
:020C1F000BAC1C
:050A4D007BFFE4FDFF4A
:100A52008B218A228923120C0FAB21AA22A92312ED
:100A62000AA760130523E5237002052214F9120A6E
:080A7200A7FF120BC180E22274
:020BE900AD0756
:100BEB00E4FF120C0FE4FD7F20120BC10DBD10F7BB
:010BFB0022D7
:100B47007F147E00120ADA7F38120BAC7F0C120B6F
:100B5700AC7F06120BAC7F01120BAC7F057E000247
:020B67000ADAA8
:100B2300120AD17A09798B120A4D7BFF7A09799AD5
:100B33000DE4FF120A521D7F0C120C0FE51C24302A
:040B4300FF020BC1E1
:0F0C2100E4FD7F0C120C0FE51C2430FF020BC109
:100B8000120AD17A0979A9120A4D7BFF7A0979B83C
:060B90000DE4FF020A5211
:090C3A00E4F51D120AFA020B2375
:090C4300751D01120BD6020B8095
:100BFC005389F0438901758CFC758A67D2A9D2AFF1
:030C0C00D28C2265
:03000B000209D116
:1009D100C0E0C0D075D000C004C005C006C0077516
:1009E1008CFC758A67AF1BAE1AAD19AC18EF2401E8
:1009F100F51BE43EF51AE43DF519E43CF51812093E
:0E0A01001BD007D006D005D004D0D0D0E032F4
:0A0C300075A0F720A702D322C3220B
:100A0F00120C305003C38001D39204A204300101B1
:100A1F00B3400AE5099403500B05098007E4F50973
:100A2F00A2049201E509C394034011A2003004010E
:0D0A3F00B35009A2049200200002D322C38C
:010A4C002287
:10080000C203C3E51B950DFFE51A950CFEE519958E
:100810000BFDE518950AFCE47B0AFAF9F8D3120AF5
:10082000C05015AF1BAE1AAD19AC188F0D8E0C8DC4
:100830000B8C0A120A0F9203E51D14603D04704BE5
:10084000300312051CE51CC3940A4003E4F51C1296
:100850000AFA120C21C3E51B9511FFE51A9510FE4B
:10086000E519950FFDE518950EFCE47B887A13F9E0
:10087000F8D3120AC05017020C43300311051CE5CF
:0E0880001CC3940A4005E4F51C8000120C3ADB
:01088E002247
:100B9600D294120BD6120B47120BFCE4F51C120C66
:060BA6003A12080080FB7A
:10089B00020B96E493A3F8E493A34003F68001F2D2
:1008AB0008DFF48029E493A3F85407240CC8C3335E
:1008BB00C4540F4420C8834004F456800146F6DF2D
:1008CB00E4800B0102040810204080900A7AE47E39
:1008DB00019360BCA3FF543F30E509541FFEE49322
:1008EB00A360010ECF54C025E060A840B8E493A3E9
:1008FB00FAE493A3F8E493A3C8C582C8CAC583CA14
:10090B00F0A3C8C582C8CAC583CADFE9DEE780BECB
:010AA600004F
:100AA700BB010689828A83E0225002E722BBFE024D
:090AB700E32289828A83E4932280
:100AC000EB9FF5F0EA9E42F0E99D42F0E89C45F08C
:010AD0002203
:00000001FF
