:03000000020B19D7
:0C0B1900787FE4F6D8FD758146020B6081
:100C5C004143544956452020202020202020005478
:100C6C00494D454F5554203E2035532020005057B8
:100C7C005220534156452020202020200054454D21
:100C8C0050204641554C542020202000C0F9A4B0DF
:060C9C00999282F880909D
:100C1500043F00000000C182014600014500043385
:100C250000000000023D0000024300000637FFFF00
:100C3500FFFFFFFF012100C180C1810122000423C4
:100C450000000000042700000000042B0000000045
:060C5500042F0000000066
:090DA5007F01120EF17F057E00B2
:100DAE00E4FDFCC3ED9FEC9E5015E4FBFA0BBB007B
:0F0DBE00010AEB64784A70F50DBD00010C80E46A
:010DCD002203
:100DCE00AF42AE41AD40AC3F8F368E358D348C3355
:020DDE00AF451F
:100DE000EF900C9893F5377538FF7539FF753AFF1A
:070DF000753BFF753CFF227B
:100F1B007537FF7538FF7539FF753AFF753BFF75F0
:030F2B003CFF2266
:100BA500200203D29422C294D293E521700DC29201
:100BB500C291C29085378075210122E521B4010DCE
:100BC500C292C291D29085388075210222E521B466
:100BD500020DC292D291C29085398075210322E51A
:100BE50021B4030DC292D291D290853A8075210429
:100BF50022E521B4040DD292C291C290853B807545
:0F0C0500210522D292C291D290853C80E4F52144
:010C140022BD
:050F9900C202D2942207
:030F9E00D202225A
:100E9800120F997580FFC290D291D295AF80C295FA
:070EA800EF20E7F6020F9EA8
:100EF100AE07120E98120F99C290C2918E80D295B0
:050F0100C295020F9EE5
:100F0600AE07120E98120F99D290C2918E80D2958A
:050F1600C295020F9ED0
:100F4100ED7004AC078004EF2440FCEC4480FF0208
:020F51000EF19F
:050D4C007BFFE4FDFF48
:100D51008B188A19891A120F41AB18AA19A91A12EC
:100D610009876013051AE51A7002051914F91209A9
:080D710087FF120F0680E22249
:100E1D007F147E00120DAE7F38120EF17F0C120E74
:100E2D00F17F06120EF17F01120EF17F057E000299
:020E3D000DAEF8
:040A5B00AB07AA0635
:100A5F0075085475093AC3EB9464EA648094804036
:100A6F00387C007D641209A0EF2430F50A7C007DEC
:100A7F000AAF03AE021209A07C007D0A1209A0ED95
:100A8F002430F50B7C007D0AAF03AE021209A0EDF6
:100A9F002430F50C750D438058C3EB940AEA64803B
:100AAF00948040287C007D0AAF03AE021209A0EFAC
:100ABF002430F50A7C007D0AAF03AE021209A0EDC7
:100ACF002430F50B750C43750D208025C3EA648027
:100ADF009480400DEB2430F50A750B43750C208084
:100AEF000D750A2DEBF4042430F50B750C43750DC1
:100AFF0020750E20750F20751020E4F5117B007AFC
:0A0B0F000079087D01E4FF020D519A
:100E3F00120DA57A0C795C120D4CAF44AE43120A19
:100E4F005BE4FD7F0C120F41E5452430FF020F06D6
:0F0F5300E4FD7F0C120F41E5452430FF020F062D
:070F9200AF44AE43020A5B0D
:100EAF00120DA57A0C796B120D4C7BFF7A0C797AA7
:060EBF000DE4FF020D51DD
:100EC500120DA57BFF7A0C7989E4FDFF120D51AF58
:060ED50044AE43020A5B7B
:090F7700E4F546120DCE020E3F16
:090F8000754601120F1B020EAFB1
:090F8900754602120F1B020EC591
:100F2E005389F0438901758CFC758A67D2A9D2AFBB
:030F3E00D28C2230
:03000B00020CA242
:100CA200C0E0C0D075D000C004C005C006C0077542
:100CB2008CFC758A67AF42AE41AD40AC3FEF240178
:100CC200F542E43EF541E43DF540E43CF53F120BCC
:0E0CD200A5D007D006D005D004D0D0D0E03297
:0A0F6D0075A0F720A702D322C322CB
:100CE000120F6D5003C38001D39204A2043001019E
:100CF000B3400AE5229403500B05228007E4F52255
:100D0000A2049201E522C394034011A20030040121
:0D0D1000B35009A2049200200002D322C3B8
:010D1D0022B3
:0B0F62000000000000000000DFF6228D
:100E7C00C2AFC2B27F32120F62D2B27F06120F62C1
:0B0E8C00A2B2920530B2FDD2AFA20569
:010E97002238
:020DF700AE0745
:100DF900C2AF7D01ED601AC2B200005E7004C2B2DA
:100E09008002D2B27F06120F62D2B2ED25E0FD80D8
:030E1900E3D2AF72
:010E1C0022B3
:100D7900E4FEC2AF7D01ED601EC2B20000D2B20036
:100D89000020B205F452068003ED42067F06120FD9
:0B0D990062ED25E0FD80DFD2AFAF0669
:010DA400222C
:100EDB00120E7C920420040A7FCC120DF77F441271
:050EEB000DF7A204B3A5
:010EF00022DF
:100D1E00120E7C92042004227FCC120DF77FBE129D
:100D2E000DF7120D79AC07120D79EFFEAD047C00B4
:0D0D3E00E42DFFEC3E8FF01209D6A204B3A5
:010D4B002285
:10080000C203C3E5429526FFE5419525FEE54095E7
:1008100024FDE53F9523FCE47B0AFAF9F8D312099D
:10082000F55015AF42AE41AD40AC3F8F268E258DC1
:10083000248C23120CE09203C3E542952AFFE54184
:100840009529FEE5409528FDE53F9527FCE47BE8EA
:100850007A03F9F8D31209F55013AF42AE41AD4017
:10086000AC3F8F2A8E298D288C27120EDBC3E542E0
:10087000952EFFE541952DFEE540952CFDE53F9534
:100880002BFCE47BB07A04F9F8D31209F5502AAFB7
:1008900042AE41AD40AC3F8F2E8E2D8D2C8C2B7BEC
:1008A000007A00793D120D1E500FAE3DAF3E7C0028
:1008B0007D101209A08E438F44E54614700302098F
:1008C0004D14700302096E24026003020983C3E51C
:1008D00044941BE54364809480400302095A30032A
:1008E000120545E545C3940A4003E4F545120DCED3
:1008F000120F53C3E5429532FFE5419531FEE540C5
:100900009530FDE53F952FFCE47BF47A01F9F8D3AF
:100910001209F55013AF42AE41AD40AC3F8F328E5D
:10092000318D308C2F120F92C3E5429536FFE54191
:100930009535FEE5409534FDE53F9533FCE47B8835
:100940007A13F9F8D31209F5503C020F80C3E5443D
:10095000941BE543648094804003020F8930032692
:100960000545E545C3940A401AE4F5458015300372
:1009700015AF42AE41AD40AC3F8F368E358D348CD5
:06098000338000120F7726
:01098600224E
:100E5F00D294120F1B120E1D120F2EE4F545F543FF
:0D0E6F00F544120EDB120F7712080080FB15
:100B2500020E5FE493A3F8E493A34003F68001F279
:100B350008DFF48029E493A3F85407240CC8C333D1
:100B4500C4540F4420C8834004F456800146F6DFA0
:100B5500E4800B0102040810204080900C15E47E0F
:100B6500019360BCA3FF543F30E509541FFEE49395
:100B7500A360010ECF54C025E060A840B8E493A35C
:100B8500FAE493A3F8E493A3C8C582C8CAC583CA87
:100B9500F0A3C8C582C8CAC583CADFE9DEE780BE3F
:010C5B000098
:10098700BB010689828A83E0225002E722BBFE026E
:09099700E32289828A83E49322A1
:1009A000C2D5EC30E709B2D5E4C39DFDE49CFCEE72
:1009B00030E715B2D5E4C39FFFE49EFE120A06C3DA
:1009C000E49DFDE49CFC8003120A0630D507C3E4D5
:0609D0009FFFE49EFE22E1
:1009D600BB010A89828A83F0E5F0A3F0225006F76C
:0F09E60009A7F01922BBFE06F3E5F009F3192269
:1009F500EB9FF5F0EA9E42F0E99D42F0E89C45F058
:010A050022CE
:100A0600BC000BBE0029EF8DF084FFADF022E4CCD4
:100A1600F875F008EF2FFFEE33FEEC33FCEE9DEC9D
:100A2600984005FCEE9DFE0FD5F0E9E4CEFD22EDE3
:100A3600F8F5F0EE8420D21CFEADF075F008EF2F2D
:100A4600FFED33FD4007985006D5F0F222C398FD1E
:050A56000FD5F0EA22BB
:00000001FF
