:03000000020A9160
:0C0A9100787FE4F6D8FD75814A020AD88F
:100CEE0041435449564520202020202020200054E6
:100CFE00494D454F5554203E203553202000505726
:100D0E005220534156452020202020200053595375
:100D1E0054454D204641554C54202000C0F9A4B0F6
:060D2E00999282F880900A
:100C9F00044300000000C182014A000149000437EB
:100CAF00000000000241000002470000C103063BA4
:100CBF00FFFFFFFFFFFF012100C180C18101220063
:100CCF00042300000000042700000000042B000094
:0E0CDF000000042F000000000433000000009D
:090E8D007F01120FFE7F057E00BB
:100E9600E4FDFCC3ED9FEC9E5015E4FBFA0BBB0092
:0F0EA600010AEB64784A70F50DBD00010C80E481
:010EB500221A
:100EB600AF46AE45AD44AC438F3A8E398D388C374C
:020EC600AF4932
:100EC800EF900D2A93F53B753CFF753DFF753EFF8E
:070ED800753FFF7540FF228A
:10102800753BFF753CFF753DFF753EFF753FFF75CE
:0310380040FF2254
:100B9100200203D29422C294D293E521700DC29215
:100BA100C291C290853B8075210122E521B4010DDE
:100BB100C292C291D290853C8075210222E521B476
:100BC100020DC292D291C290853D8075210322E52A
:100BD10021B4030DC292D291D290853E8075210439
:100BE10022E521B4040DD292C291C290853F807555
:0F0BF100210522D292C291D290854080E4F52155
:010C000022D1
:0510CF00C202D29422D0
:0310D400D2022223
:100FA5001210CF7580FFC290D291D295AF80C295B5
:070FB500EF20E7F60210D463
:100FFE00AE07120FA51210CFC290C2918E80D2955D
:05100E00C2950210D4A0
:10101300AE07120FA51210CFD290C2918E80D29537
:05102300C2950210D48B
:10104E00ED7004AC078004EF2440FCEC4480FF02FA
:02105E000FFE83
:050DDE007BFFE4FDFFB6
:100DE3008B128A13891412104EAB12AA13A9141270
:100DF30009BD60130514E5147002051314F91209F3
:080E0300BDFF12101380E22272
:100F05007F147E00120E967F38120FFE7F0C120F93
:100F1500FE7F06120FFE7F01120FFE7F057E000287
:020F25000E9626
:040B1D00AB07AA0672
:100B210075085475093AC3EB940AEA6480948040CD
:100B3100217C007D0A1209D6EF2430F50A7C007D64
:100B41000AAF03AE021209D6ED2430F50B750C4342
:100B51008022C3EA64809480400DEB2430F50A754D
:100B61000B43750C20800D750A2DEBF4042430F530
:100B71000B750C43750D20750E20750F2075102017
:100B8100E4F5117B007A0079087D01E4FF020DE3B1
:100F6900120E8D7A0C79EE120DDEAF48AE47120BD8
:100F79001DE4FD7F0C12104EE5492430FF021013C9
:0F107000E4FD7F0C12104EE5492430FF021013EF
:0710C800AF48AE47020B1D0B
:100FBC00120E8D7A0C79FD120DDE7BFF7A0D790CF9
:060FCC000DE4FF020DE33D
:100FD200120E8D7BFF7A0D791BE4FDFF120DE3AF3C
:060FE20048AE47020B1DA2
:0910AD00E4F54A120EB6020F69C7
:0910B600754A01121028020FBC5A
:0910BF00754A02121028020FD23A
:10103B005389F0438901758CFC758A67D2A9D2AFAD
:03104B00D28C2222
:03000B00020D34AF
:100D3400C0E0C0D075D000C004C005C006C00775AF
:100D44008CFC758A67AF46AE45AD44AC43EF2401D5
:100D5400F546E43EF545E43DF544E43CF543120B29
:0E0D640091D007D006D005D004D0D0D0E03218
:0A10990075A0F720A702D322C3229E
:100D72001210995003C38001D39206A206300101DA
:100D8200B3400AE5229403500B05228007E4F522C2
:100D9200A2069201E522C394034011A2003006018B
:0D0DA200B35009A2069200200002D322C324
:010DAF002221
:0B108E000000000000000000DFF62260
:100F8900C2AFC2B27F3212108ED2B27F0612108E59
:0B0F9900A2B2920730B2FDD2AFA20757
:010FA400222A
:020EDF00AE075C
:100EE100C2AF7D01ED601AC2B200005E7004C2B2F1
:100EF1008002D2B27F0612108ED2B2ED25E0FD80C3
:030F0100E3D2AF89
:010F040022CA
:100E0B00E4FEC2AF7D01ED601EC2B20000D2B200A3
:100E1B000020B205F452068003ED42067F06121045
:0B0E2B008EED25E0FD80DFD2AFAF06AA
:010E36002299
:100FE800120F89920620060A7FCC120EDF7F441268
:050FF8000EDFA206B3AC
:010FFD0022D1
:100DB000120F8992062006227FCC120EDF7FBE1210
:100DC0000EDF120E0BAC07120E0BEFFEAD047C0013
:0D0DD000E42DFFEC3E8FF0120A0CA206B3DA
:010DDD0022F3
:0710600092B5121067D2B433
:091067000000000000000000225E
:0F107F00D2B5D2B4121067C2B5121067C2B42234
:0A10A300C2B5121062D2B502106748
:100E6300E4FEEF30E703D38001C3121060C2B4EF96
:100E730025E0FF0EBE08EBD2B512106220B503D3F6
:090E83008001C39207C2B4A2076A
:010E8C002243
:100E3700E4FFD2B5FEEF25E0FFD2B412106730B55C
:100E470003430701C2B41210670EBE08E830070358
:0B0E5700C38001D3121060C2B4D2B5FA
:010E6200226D
:100F270012107FEF25E0FF120E63920620060512CE
:100F370010A3C322AF05120E6392061210A3A206D6
:010F47002287
:020C0100AC073E
:100C030012107FEC25E0FF120E639206200602808D
:100C13001DAF05120E639206200602801112107F8B
:100C2300EC25E04401FF120E639206200605121024
:100C3300A3C322D207120E37AD07C207120E371213
:0C0C430010A3EFFFEDCF8FF0120A0CD3CE
:010C4F002282
:100C5000C3E5469526FFE5459525FEE5449524FD2B
:100C6000E5439523FCE47BC8FAF9F8D3120A2B502C
:100C70002DAF46AE45AD44AC438F268E258D248CDA
:100C8000237B007A0079087D797F5A120C01500C81
:0E0C9000E509450860028001C3920322C203F9
:010C9E002233
:10080000C204C205C3E546952AFFE5459529FEE5E4
:10081000449528FDE5439527FCE47B0AFAF9F8D3D3
:10082000120A2B5015AF46AE45AD44AC438F2A8E0D
:10083000298D288C27120D729204C3E546952EFF50
:10084000E545952DFEE544952CFDE543952BFCE40F
:100850007BE87A03F9F8D3120A2B5013AF46AE4562
:10086000AD44AC438F2E8E2D8D2C8C2B120FE8C3F4
:10087000E5469532FFE5459531FEE5449530FDE5C9
:1008800043952FFCE47BB07A04F9F8D3120A2B507D
:100890002AAF46AE45AD44AC438F328E318D308C9D
:1008A0002F7B007A007941120DB0500FAE41AF425C
:1008B0007C007D101209D68E478F4820B303D38069
:1008C00001C39205120C50E54A1470030209711419
:1008D000700302099B240260030209B9C3E548942E
:1008E0001BE5476480948050033003030209813084
:1008F00004120549E549C3940A4003E4F549120E80
:10090000B6121070300510AF46AE45AD44AC438F03
:100910003A8E398D388C37C3E5469536FFE54595D7
:1009200035FEE5449534FDE5439533FCE47BF47AEC
:1009300001F9F8D3120A2B5013AF46AE45AD44ACC3
:10094000438F368E358D348C331210C8C3E54695EF
:100950003AFFE5459539FEE5449538FDE543953781
:10096000FCE47B887A13F9F8D3120A2B504E02105C
:10097000B6C3E548941BE547648094805003300378
:10098000030210BF20050330043230042C0549E572
:1009900049C3940A4023E4F549801E30041E7D03B8
:1009A0007F5A120F27C203AF46AE45AD44AC438F0A
:0C09B0003A8E398D388C3780001210AD63
:0109BC002218
:100F4800D294121028120F0512103BD2B5D2B4E475
:100F5800F549F547F548120FE81210AD1208008060
:010F6800FB8D
:100A9D00020F48E493A3F8E493A34003F68001F218
:100AAD0008DFF48029E493A3F85407240CC8C3335A
:100ABD00C4540F4420C8834004F456800146F6DF29
:100ACD00E4800B0102040810204080900C9FE47E0E
:100ADD00019360BCA3FF543F30E509541FFEE4931E
:100AED00A360010ECF54C025E060A840B8E493A3E5
:100AFD00FAE493A3F8E493A3C8C582C8CAC583CA10
:100B0D00F0A3C8C582C8CAC583CADFE9DEE780BEC7
:010CED000006
:1009BD00BB010689828A83E0225002E722BBFE0238
:0909CD00E32289828A83E493226B
:1009D600C2D5EC30E709B2D5E4C39DFDE49CFCEE3C
:1009E60030E715B2D5E4C39FFFE49EFE120A3CC36E
:1009F600E49DFDE49CFC8003120A3C30D507C3E469
:060A06009FFFE49EFE22AA
:100A0C00BB010A89828A83F0E5F0A3F0225006F735
:0F0A1C0009A7F01922BBFE06F3E5F009F3192232
:100A2B00EB9FF5F0EA9E42F0E99D42F0E89C45F021
:010A3B002298
:100A3C00BC000BBE0029EF8DF084FFADF022E4CC9E
:100A4C00F875F008EF2FFFEE33FEEC33FCEE9DEC67
:100A5C00984005FCEE9DFE0FD5F0E9E4CEFD22EDAD
:100A6C00F8F5F0EE8420D21CFEADF075F008EF2FF7
:100A7C00FFED33FD4007985006D5F0F222C398FDE8
:050A8C000FD5F0EA2285
:00000001FF
